{
  "contractName": "ECDSA",
  "abi": [
    {
      "constant": true,
      "inputs": [
        {
          "name": "hash",
          "type": "bytes32"
        },
        {
          "name": "signature",
          "type": "bytes"
        }
      ],
      "name": "recover",
      "outputs": [
        {
          "name": "",
          "type": "address"
        }
      ],
      "payable": false,
      "stateMutability": "pure",
      "type": "function"
    }
  ],
  "bytecode": "0x61024d610026600b82828239805160001a60731461001957fe5b30600052607381538281f3fe73000000000000000000000000000000000000000030146080604052600436106100355760003560e01c806319045a251461003a575b600080fd5b6100fd6004803603604081101561005057600080fd5b81019080803590602001909291908035906020019064010000000081111561007757600080fd5b82018360208201111561008957600080fd5b803590602001918460018302840111640100000000831117156100ab57600080fd5b91908080601f016020809104026020016040519081016040528093929190818152602001838380828437600081840152601f19601f82011690508083019250505050505050919291929050505061013f565b604051808273ffffffffffffffffffffffffffffffffffffffff1673ffffffffffffffffffffffffffffffffffffffff16815260200191505060405180910390f35b600080600080604185511461015a576000935050505061021b565b6020850151925060408501519150606085015160001a9050601b8160ff16101561018557601b810190505b601b8160ff161415801561019d5750601c8160ff1614155b156101ae576000935050505061021b565b60018682858560405160008152602001604052604051808581526020018460ff1660ff1681526020018381526020018281526020019450505050506020604051602081039080840390855afa15801561020b573d6000803e3d6000fd5b5050506020604051035193505050505b9291505056fea165627a7a723058200f0e6da321dd7bd81c0f7cb67e8f67e23cf0fe20798336df233fa5c98dd6cd050029",
  "source": "pragma solidity ^0.5.0;\n\nlibrary ECDSA {\n\n  /**\n   * @dev Recover signer address from a message by using their signature\n   * @param hash bytes32 message, the hash is the signed message. What is recovered is the signer address.\n   * @param signature bytes signature, the signature is generated using web3.eth.sign()\n   */\n  function recover(bytes32 hash, bytes memory signature)\n    public\n    pure\n    returns (address)\n  {\n    bytes32 r;\n    bytes32 s;\n    uint8 v;\n\n    // Check the signature length\n    if (signature.length != 65) {\n      return (address(0));\n    }\n\n    // Divide the signature in r, s and v variables with inline assembly.\n    assembly {\n      r := mload(add(signature, 0x20))\n      s := mload(add(signature, 0x40))\n      v := byte(0, mload(add(signature, 0x60)))\n    }\n\n    // Version of signature should be 27 or 28, but 0 and 1 are also possible versions\n    if (v < 27) {\n      v += 27;\n    }\n\n    // If the version is correct return the signer address\n    if (v != 27 && v != 28) {\n      return (address(0));\n    } else {\n      // solium-disable-next-line arg-overflow\n      return ecrecover(hash, v, r, s);\n    }\n  }\n  \n}",
  "sourcePath": "/Users/Raid/Mastering_Ethereum/DevelopingFirstDapp/Testing/contracts/contracts/ECDSA.sol",
  "compiler": {
    "name": "solc",
    "version": "0.5.8+commit.23d335f2.Emscripten.clang"
  },
  "schemaVersion": "3.0.11",
  "updatedAt": "2019-08-28T12:08:59.086Z",
  "devdoc": {
    "methods": {
      "recover(bytes32,bytes)": {
        "details": "Recover signer address from a message by using their signature",
        "params": {
          "hash": "bytes32 message, the hash is the signed message. What is recovered is the signer address.",
          "signature": "bytes signature, the signature is generated using web3.eth.sign()"
        }
      }
    }
  },
  "userdoc": {
    "methods": {}
  }
}