{
  "contractName": "MultisigERC20",
  "abi": [
    {
      "constant": true,
      "inputs": [],
      "name": "ERC20Interface",
      "outputs": [
        {
          "name": "",
          "type": "address"
        }
      ],
      "payable": false,
      "stateMutability": "view",
      "type": "function"
    },
    {
      "constant": true,
      "inputs": [
        {
          "name": "",
          "type": "address"
        },
        {
          "name": "",
          "type": "bytes32"
        }
      ],
      "name": "safetyKeys",
      "outputs": [
        {
          "name": "",
          "type": "address"
        }
      ],
      "payable": false,
      "stateMutability": "view",
      "type": "function"
    },
    {
      "constant": true,
      "inputs": [
        {
          "name": "",
          "type": "bytes32"
        }
      ],
      "name": "tokens",
      "outputs": [
        {
          "name": "",
          "type": "address"
        }
      ],
      "payable": false,
      "stateMutability": "view",
      "type": "function"
    },
    {
      "constant": true,
      "inputs": [
        {
          "name": "",
          "type": "address"
        }
      ],
      "name": "transactionNonces",
      "outputs": [
        {
          "name": "",
          "type": "uint256"
        }
      ],
      "payable": false,
      "stateMutability": "view",
      "type": "function"
    },
    {
      "constant": true,
      "inputs": [
        {
          "name": "",
          "type": "address"
        },
        {
          "name": "",
          "type": "bytes32"
        }
      ],
      "name": "tokenBalances",
      "outputs": [
        {
          "name": "",
          "type": "uint256"
        }
      ],
      "payable": false,
      "stateMutability": "view",
      "type": "function"
    },
    {
      "inputs": [],
      "payable": false,
      "stateMutability": "nonpayable",
      "type": "constructor"
    },
    {
      "constant": false,
      "inputs": [
        {
          "name": "symbol_",
          "type": "bytes32"
        },
        {
          "name": "address_",
          "type": "address"
        }
      ],
      "name": "addNewToken",
      "outputs": [
        {
          "name": "",
          "type": "bool"
        }
      ],
      "payable": false,
      "stateMutability": "nonpayable",
      "type": "function"
    },
    {
      "constant": false,
      "inputs": [
        {
          "name": "symbol_",
          "type": "bytes32"
        }
      ],
      "name": "removeToken",
      "outputs": [
        {
          "name": "",
          "type": "bool"
        }
      ],
      "payable": false,
      "stateMutability": "nonpayable",
      "type": "function"
    },
    {
      "constant": false,
      "inputs": [
        {
          "name": "symbol_",
          "type": "bytes32"
        },
        {
          "name": "amount_",
          "type": "uint256"
        },
        {
          "name": "signature_",
          "type": "bytes"
        }
      ],
      "name": "setDailyLimit",
      "outputs": [],
      "payable": false,
      "stateMutability": "nonpayable",
      "type": "function"
    },
    {
      "constant": false,
      "inputs": [
        {
          "name": "symbol_",
          "type": "bytes32"
        },
        {
          "name": "signature_",
          "type": "bytes"
        }
      ],
      "name": "withdrawLimit",
      "outputs": [],
      "payable": false,
      "stateMutability": "nonpayable",
      "type": "function"
    },
    {
      "constant": false,
      "inputs": [
        {
          "name": "symbol_",
          "type": "bytes32"
        },
        {
          "name": "amount_",
          "type": "uint256"
        }
      ],
      "name": "depositFunds",
      "outputs": [
        {
          "name": "",
          "type": "bool"
        }
      ],
      "payable": false,
      "stateMutability": "nonpayable",
      "type": "function"
    },
    {
      "constant": false,
      "inputs": [
        {
          "name": "safetyKey_",
          "type": "address"
        },
        {
          "name": "symbol_",
          "type": "bytes32"
        },
        {
          "name": "amount_",
          "type": "uint256"
        }
      ],
      "name": "depositFunds",
      "outputs": [
        {
          "name": "",
          "type": "bool"
        }
      ],
      "payable": false,
      "stateMutability": "nonpayable",
      "type": "function"
    },
    {
      "constant": false,
      "inputs": [
        {
          "name": "to",
          "type": "address"
        },
        {
          "name": "amount",
          "type": "uint256"
        },
        {
          "name": "signature",
          "type": "bytes"
        },
        {
          "name": "symbol_",
          "type": "bytes32"
        }
      ],
      "name": "verifyTransaction__ef",
      "outputs": [],
      "payable": false,
      "stateMutability": "nonpayable",
      "type": "function"
    },
    {
      "constant": false,
      "inputs": [
        {
          "name": "from_",
          "type": "address"
        },
        {
          "name": "to_",
          "type": "address"
        },
        {
          "name": "symbol_",
          "type": "bytes32"
        },
        {
          "name": "amount_",
          "type": "uint256"
        }
      ],
      "name": "recoverFundsToSafeAddress",
      "outputs": [],
      "payable": false,
      "stateMutability": "nonpayable",
      "type": "function"
    },
    {
      "constant": false,
      "inputs": [
        {
          "name": "from_",
          "type": "address"
        },
        {
          "name": "to_",
          "type": "address"
        },
        {
          "name": "symbol_",
          "type": "bytes32"
        },
        {
          "name": "amount_",
          "type": "uint256"
        }
      ],
      "name": "recoverFunds",
      "outputs": [],
      "payable": false,
      "stateMutability": "nonpayable",
      "type": "function"
    }
  ],
  "bytecode": "0x608060405234801561001057600080fd5b50600080546001600160a01b031916331790556119c6806100326000396000f3fe608060405234801561001057600080fd5b50600436106100e85760003560e01c8063904194a31161008c578063bdfb0d8611610066578063bdfb0d861461033f578063d520d23c146103f1578063e01575d31461041d578063faa29c5114610459576100e8565b8063904194a3146102be578063a561d814146102db578063b082443b14610313576100e8565b8063224e7462116100c8578063224e746214610207578063256e8d5e14610224578063366ada08146102505780637947b37714610282576100e8565b8061216a146100ed5780631477bd90146101ac5780631bbc4b83146101e3575b600080fd5b6101aa6004803603608081101561010357600080fd5b6001600160a01b038235169160208101359181019060608101604082013564010000000081111561013357600080fd5b82018360208201111561014557600080fd5b8035906020019184600183028401116401000000008311171561016757600080fd5b91908080601f0160208091040260200160405190810160405280939291908181526020018383808284376000920191909152509295505091359250610506915050565b005b6101cf600480360360408110156101c257600080fd5b5080359060200135610a75565b604080519115158252519081900360200190f35b6101eb610c61565b604080516001600160a01b039092168252519081900360200190f35b6101cf6004803603602081101561021d57600080fd5b5035610c70565b6101eb6004803603604081101561023a57600080fd5b506001600160a01b038135169060200135610ccb565b6101cf6004803603606081101561026657600080fd5b506001600160a01b038135169060208101359060400135610cf1565b6101aa6004803603608081101561029857600080fd5b506001600160a01b03813581169160208101359091169060408101359060600135610f29565b6101eb600480360360208110156102d457600080fd5b50356110f0565b610301600480360360208110156102f157600080fd5b50356001600160a01b031661110b565b60408051918252519081900360200190f35b6101cf6004803603604081101561032957600080fd5b50803590602001356001600160a01b031661111d565b6101aa6004803603606081101561035557600080fd5b81359160208101359181019060608101604082013564010000000081111561037c57600080fd5b82018360208201111561038e57600080fd5b803590602001918460018302840111640100000000831117156103b057600080fd5b91908080601f016020809104026020016040519081016040528093929190818152602001838380828437600092019190915250929550611167945050505050565b6103016004803603604081101561040757600080fd5b506001600160a01b038135169060200135611465565b6101aa6004803603608081101561043357600080fd5b506001600160a01b03813581169160208101359091169060408101359060600135611482565b6101aa6004803603604081101561046f57600080fd5b8135919081019060408101602082013564010000000081111561049157600080fd5b8201836020820111156104a357600080fd5b803590602001918460018302840111640100000000831117156104c557600080fd5b91908080601f01602080910402602001604051908101604052809392919081815260200183838082843760009201919091525092955061150f945050505050565b33600081815260036020908152604080832085845290915290205484111561052d57600080fd5b6001600160a01b038082166000818152600460209081526040808320548151606095861b81850152958b1690941b603486015260488501899052606885019390935260888085018790528351808603909101815260a88501808552815191830191909120600160e01b6319045a250290915260ac850181815260cc8601948552885160ec8701528851919573__ECDSA_________________________________956319045a259588958c95929361010c0192908601918190849084905b838110156106025781810151838201526020016105ea565b50505050905090810190601f16801561062f5780820380516001836020036101000a031916815260200191505b50935050505060206040518083038186803b15801561064d57600080fd5b505af4158015610661573d6000803e3d6000fd5b505050506040513d602081101561067757600080fd5b50516000546001600160a01b03908116911614806107a4575060408051600160e01b6319045a25028152600481018381526024820192835286516044830152865173__ECDSA_________________________________936319045a259386938a9390929160640190602085019080838360005b838110156107025781810151838201526020016106ea565b50505050905090810190601f16801561072f5780820380516001836020036101000a031916815260200191505b50935050505060206040518083038186803b15801561074d57600080fd5b505af4158015610761573d6000803e3d6000fd5b505050506040513d602081101561077757600080fd5b50516001600160a01b03838116600090815260056020908152604080832088845290915290205481169116145b6107f15760408051600160e51b62461bcd0281526020600482015260136024820152600160681b72496e636f7272656374207369676e617475726502604482015290519081900360640190fd5b6001600160a01b038216600090815260066020908152604080832086845290915290206003015460ff16151560011415610950576001600160a01b038216600090815260066020908152604080832086845290915290206002015462015180014211156108b7576001600160a01b038216600090815260066020908152604080832086845290915290205485111561088857600080fd5b6001600160a01b03821660009081526006602090815260408083208684529091529020426002909101556108f7565b6001600160a01b0382166000908152600660209081526040808320868452909152902080546001909101546108ec90876117fa565b11156108f757600080fd5b6001600160a01b038216600090815260066020908152604080832086845290915290206001015461092890866117fa565b6001600160a01b03831660009081526006602090815260408083208784529091529020600101555b600083815260026020908152604080832054600180546001600160a01b0319166001600160a01b03928316908117918290558351600160e01b63a9059cbb0281528c84166004820152602481018c905293519095919092169363a9059cbb936044808201949293918390030190829087803b1580156109ce57600080fd5b505af11580156109e2573d6000803e3d6000fd5b505050506040513d60208110156109f857600080fd5b50506001600160a01b0383166000908152600360209081526040808320878452909152902054610a28908761185e565b6001600160a01b0390931660008181526003602090815260408083209783529681528682209590955533815260078552858120429055908152600490935250502080546001019055505050565b6000828152600260205260408120546001600160a01b0316610a9657600080fd5b60008211610aa357600080fd5b60008381526002602090815260409182902054600180546001600160a01b0319166001600160a01b03928316908117918290558451600160e11b636eb1769f02815233600482018190523060248301529551919594929093169263dd62ed3e926044808301939192829003018186803b158015610b1f57600080fd5b505afa158015610b33573d6000803e3d6000fd5b505050506040513d6020811015610b4957600080fd5b5051841115610b5757600080fd5b60015460408051600160e01b6323b872dd0281526001600160a01b03848116600483015230602483015260448201889052915160009392909216916323b872dd9160648082019260209290919082900301818787803b158015610bb957600080fd5b505af1158015610bcd573d6000803e3d6000fd5b505050506040513d6020811015610be357600080fd5b5051905080610bf157600080fd5b6001600160a01b0382166000908152600360209081526040808320898452909152902054610c1f90866117fa565b6001600160a01b039092166000908152600360209081526040808320898452825280832094909455338252600790529190912042905550600191505092915050565b6001546001600160a01b031681565b600080546001600160a01b03163314610c8857600080fd5b6000828152600260205260409020546001600160a01b0316610ca957600080fd5b50600090815260026020526040902080546001600160a01b0319169055600190565b60056020908152600092835260408084209091529082529020546001600160a01b031681565b33600090815260036020908152604080832085845290915281205415610d1657600080fd5b6000838152600260205260409020546001600160a01b0316610d3757600080fd5b60008211610d4457600080fd5b60008381526002602090815260409182902054600180546001600160a01b0319166001600160a01b03928316908117918290558451600160e11b636eb1769f02815233600482018190523060248301529551919594929093169263dd62ed3e926044808301939192829003018186803b158015610dc057600080fd5b505afa158015610dd4573d6000803e3d6000fd5b505050506040513d6020811015610dea57600080fd5b5051841115610df857600080fd5b60015460408051600160e01b6323b872dd0281526001600160a01b03848116600483015230602483015260448201889052915160009392909216916323b872dd9160648082019260209290919082900301818787803b158015610e5a57600080fd5b505af1158015610e6e573d6000803e3d6000fd5b505050506040513d6020811015610e8457600080fd5b5051905080610e9257600080fd5b6001600160a01b0382166000908152600360209081526040808320898452909152902054610ec090866117fa565b6001600160a01b0392831660009081526003602090815260408083208a8452825280832093909355338083526005825283832099835298815282822080546001600160a01b0319169a909516999099179093559582525060079095525050509020429055600190565b6001600160a01b0384166000908152600760205260409020546078014211610f8557604051600160e51b62461bcd0281526004018080602001828103825260348152602001806119676034913960400191505060405180910390fd5b6001600160a01b0384166000908152600360209081526040808320858452909152902054811115610fb557600080fd5b6001600160a01b038481166000908152600560209081526040808320868452909152902054811690841614610fe957600080fd5b600082815260026020908152604080832054600180546001600160a01b0319166001600160a01b03928316908117918290558351600160e01b63a9059cbb02815289841660048201526024810188905293519095919092169363a9059cbb936044808201949293918390030190829087803b15801561106757600080fd5b505af115801561107b573d6000803e3d6000fd5b505050506040513d602081101561109157600080fd5b50506001600160a01b03851660009081526003602090815260408083208684529091529020546110c1908361185e565b6001600160a01b0390951660009081526003602090815260408083209583529490529290922093909355505050565b6002602052600090815260409020546001600160a01b031681565b60046020526000908152604090205481565b600080546001600160a01b0316331461113557600080fd5b50600082815260026020526040902080546001600160a01b0383166001600160a01b0319909116179055600192915050565b33600081815260046020908152604080832054815160609590951b8584015260348501889052605485018790526074808601919091528151808603909101815260948501808352815191840191909120600160e01b6319045a25029091526098850181815260b88601928352865160d88701528651919573__ECDSA_________________________________956319045a259588958a95909360f80192918601918190849084905b8381101561122757818101518382015260200161120f565b50505050905090810190601f1680156112545780820380516001836020036101000a031916815260200191505b50935050505060206040518083038186803b15801561127257600080fd5b505af4158015611286573d6000803e3d6000fd5b505050506040513d602081101561129c57600080fd5b50516000546001600160a01b03908116911614806113c8575060408051600160e01b6319045a25028152600481018381526024820192835284516044830152845173__ECDSA_________________________________936319045a25938693889390929160640190602085019080838360005b8381101561132757818101518382015260200161130f565b50505050905090810190601f1680156113545780820380516001836020036101000a031916815260200191505b50935050505060206040518083038186803b15801561137257600080fd5b505af4158015611386573d6000803e3d6000fd5b505050506040513d602081101561139c57600080fd5b50513360009081526005602090815260408083208884529091529020546001600160a01b039081169116145b6114155760408051600160e51b62461bcd0281526020600482015260136024820152600160681b72496e636f7272656374207369676e617475726502604482015290519081900360640190fd5b50503360008181526006602090815260408083209583529481528482209384556003909301805460ff19166001908117909155918152600483528381208054909201909155600790915220429055565b600360209081526000928352604080842090915290825290205481565b6001600160a01b03841660009081526007602052604090205461012c0142116114df57604051600160e51b62461bcd0281526004018080602001828103825260318152602001806119366031913960400191505060405180910390fd5b6001600160a01b0384166000908152600360209081526040808320858452909152902054811115610fe957600080fd5b33600081815260046020908152604080832054815160609590951b85840152603485018790526054808601919091528151808603909101815260748501808352815191840191909120600160e01b6319045a25029091526078850181815260988601928352865160b88701528651919573__ECDSA_________________________________956319045a259588958a95909360d80192918601918190849084905b838110156115c85781810151838201526020016115b0565b50505050905090810190601f1680156115f55780820380516001836020036101000a031916815260200191505b50935050505060206040518083038186803b15801561161357600080fd5b505af4158015611627573d6000803e3d6000fd5b505050506040513d602081101561163d57600080fd5b50516000546001600160a01b0390811691161480611769575060408051600160e01b6319045a25028152600481018381526024820192835284516044830152845173__ECDSA_________________________________936319045a25938693889390929160640190602085019080838360005b838110156116c85781810151838201526020016116b0565b50505050905090810190601f1680156116f55780820380516001836020036101000a031916815260200191505b50935050505060206040518083038186803b15801561171357600080fd5b505af4158015611727573d6000803e3d6000fd5b505050506040513d602081101561173d57600080fd5b50513360009081526005602090815260408083208784529091529020546001600160a01b039081169116145b6117b65760408051600160e51b62461bcd0281526020600482015260136024820152600160681b72496e636f7272656374207369676e617475726502604482015290519081900360640190fd5b5050336000818152600660209081526040808320948352938152838220600301805460ff191690559181526004825282812080546001019055600790915220429055565b6000828201838110156118575760408051600160e51b62461bcd02815260206004820152601b60248201527f536166654d6174683a206164646974696f6e206f766572666c6f770000000000604482015290519081900360640190fd5b9392505050565b600061185783836040518060400160405280601e81526020017f536166654d6174683a207375627472616374696f6e206f766572666c6f7700008152506000818484111561192d57604051600160e51b62461bcd0281526004018080602001828103825283818151815260200191508051906020019080838360005b838110156118f25781810151838201526020016118da565b50505050905090810190601f16801561191f5780820380516001836020036101000a031916815260200191505b509250505060405180910390fd5b50505090039056fe4e6f7420656e6f7567682074696d6520656c617073656420746f207265636f76657220746f20616e7920616464726573734e6f7420656e6f7567682074696d6520656c617073656420746f207265636f76657220746f206261636b75702061646472657373a165627a7a72305820c5a302d81ed7ef7ec20996fbed0c4e3f86a39ee24967a6357c4dc2fadc34f0c90029",
  "source": "pragma solidity ^0.5.0;\n\nimport './ECDSA.sol';\nimport \"./IERC20.sol\";\nimport \"./SafeMath.sol\";\n\ncontract MultisigERC20 {\n    \n    struct TimeLimits {\n        uint256 dailyLimit;\n        uint256 spent;\n        uint256 timeStart;\n        bool set;\n    }    \n        \n    address private owner;\n    IERC20 public ERC20Interface; // required to communicate with tokens complying to ERC20 standard \n    mapping(bytes32 => address) public tokens; // mapping of tokens suppoted by the smart contract \n    mapping(address => mapping(bytes32 => uint256)) public tokenBalances; // mapping of token balances for every user    \n    mapping(address => uint256) public transactionNonces; // amount of transactions for every user in this smart contract\n    mapping(address => mapping(bytes32 => address)) public safetyKeys; // make private when tested\n    mapping(address => mapping(bytes32 => TimeLimits)) private limits; \n    mapping(address => uint256) private lastAppearance; // Private to make it harder for malicious users.\n    \n    modifier onlyOwner { \n      require(msg.sender == owner);\n      _;\n    }\n    \n    constructor() public {\n        owner = msg.sender;\n    }\n    \n    // Used to add support for new tokens\n    function addNewToken (bytes32 symbol_, address address_) \n        public \n        onlyOwner \n        returns (bool) {  \n        tokens[symbol_] = address_;  \n      \n        return true;  \n    }  \n      \n    // Removing tokens not supported by dapp\n    function removeToken(bytes32 symbol_) \n        public\n        onlyOwner \n        returns (bool) {  \n      require(tokens[symbol_] != address(0));  \n      \n      delete(tokens[symbol_]);  \n      \n      return true;  \n    }  \n    \n    function setDailyLimit(bytes32 symbol_, uint256 amount_, bytes memory signature_) public {\n        bytes32 message = keccak256(abi.encodePacked(msg.sender, symbol_, amount_, transactionNonces[msg.sender]));\n        require(owner == ECDSA.recover(message, signature_) || safetyKeys[msg.sender][symbol_] == ECDSA.recover(message, signature_), \"Incorrect signature\"); \n        limits[msg.sender][symbol_].dailyLimit = amount_;\n        limits[msg.sender][symbol_].set = true;\n        transactionNonces[msg.sender]++;\n        lastAppearance[msg.sender] = block.timestamp; // Updating last time an action was taken by the user \n    }\n    \n    function withdrawLimit(bytes32 symbol_, bytes memory signature_) public {\n        bytes32 message = keccak256(abi.encodePacked(msg.sender, symbol_, transactionNonces[msg.sender]));\n        require(owner == ECDSA.recover(message, signature_) || safetyKeys[msg.sender][symbol_] == ECDSA.recover(message, signature_), \"Incorrect signature\"); \n        limits[msg.sender][symbol_].set = false;\n        transactionNonces[msg.sender]++;\n        lastAppearance[msg.sender] = block.timestamp; // Updating last time an action was taken by the user \n    }\n     \n    function depositFunds(bytes32 symbol_, uint256 amount_) public returns (bool) {\n        require(tokens[symbol_] != address(0));  \n        require(amount_ > 0);  \n          \n        address contract_ = tokens[symbol_];  \n        address from_ = msg.sender;  \n         \n        ERC20Interface = IERC20(contract_);  \n        \n        require(amount_ <= ERC20Interface.allowance(from_, address(this)));\n\n        bool depositSuccess = ERC20Interface.transferFrom(from_, address(this), amount_);  \n        \n        if (!depositSuccess) {\n            revert();\n        }\n        \n        tokenBalances[from_][symbol_] = SafeMath.add(tokenBalances[from_][symbol_], amount_);\n        lastAppearance[msg.sender] = block.timestamp;\n        return true;\n    }\n    \n    function depositFunds(address safetyKey_, bytes32 symbol_, uint256 amount_) public returns (bool) {\n        require(tokenBalances[msg.sender][symbol_] == 0); // Registration allowed if there is no token balance for the user\n        require(tokens[symbol_] != address(0));  \n        require(amount_ > 0);  \n          \n        address contract_ = tokens[symbol_];  \n        address from_ = msg.sender;  \n         \n        ERC20Interface = IERC20(contract_);  \n        \n        require(amount_ <= ERC20Interface.allowance(from_, address(this)));\n\n        bool depositSuccess = ERC20Interface.transferFrom(from_, address(this), amount_);  \n        \n        if (!depositSuccess) {\n            revert();\n        }\n        \n        tokenBalances[from_][symbol_] = SafeMath.add(tokenBalances[from_][symbol_], amount_);\n        safetyKeys[msg.sender][symbol_] = safetyKey_; // Registering backup key\n        lastAppearance[msg.sender] = block.timestamp;\n        return true;\n    }\n     \n    \n    function verifyTransaction__ef\n        (\n        address to,\n        uint256 amount, \n        bytes memory signature,\n        bytes32 symbol_\n        ) \n        public \n        {\n            address from = msg.sender;\n            require(tokenBalances[from][symbol_] >= amount); \n            bytes32 message = keccak256(abi.encodePacked(from, to, amount, transactionNonces[from], symbol_));\n            require(owner == ECDSA.recover(message, signature) || safetyKeys[from][symbol_] == ECDSA.recover(message, signature), \"Incorrect signature\"); // Check if the transaction was signed by the owner or safe key\n            if (limits[from][symbol_].set == true) {\n                if (block.timestamp > limits[from][symbol_].timeStart + 86400) {\n                    require(amount <= limits[from][symbol_].dailyLimit);\n                    limits[from][symbol_].timeStart = block.timestamp;\n                } else {\n                    require(SafeMath.add(limits[from][symbol_].spent, amount) <= limits[from][symbol_].dailyLimit);\n                }\n                limits[from][symbol_].spent = SafeMath.add(limits[from][symbol_].spent, amount);\n            }\n            address contract_ = tokens[symbol_];  \n\n            ERC20Interface = IERC20(contract_);\n            ERC20Interface.transfer(to, amount);\n            tokenBalances[from][symbol_] = SafeMath.sub(tokenBalances[from][symbol_] ,amount);\n            lastAppearance[msg.sender] = block.timestamp; // Updating last time an action was taken by the user \n            transactionNonces[from]++;\n        }\n    \n    function recoverFundsToSafeAddress(address from_, address to_, bytes32 symbol_, uint256 amount_) public {\n        require(block.timestamp > lastAppearance[from_] + 120, \"Not enough time elapsed to recover to backup address\"); //Testing that after two minutes funds can be sent to safe address\n        require(tokenBalances[from_][symbol_] >= amount_);\n        require(safetyKeys[from_][symbol_] == to_);\n        address contract_ = tokens[symbol_];  \n        ERC20Interface = IERC20(contract_);\n        ERC20Interface.transfer(to_, amount_);\n        tokenBalances[from_][symbol_] = SafeMath.sub(tokenBalances[from_][symbol_] ,amount_);\n    }\n    \n    function recoverFunds(address from_, address to_, bytes32 symbol_, uint256 amount_) public {\n        require(block.timestamp > lastAppearance[from_] + 300, \"Not enough time elapsed to recover to any address\"); //Testing that after five minutes funds can be sent to anyone\n        require(tokenBalances[from_][symbol_] >= amount_);\n        address contract_ = tokens[symbol_];  \n        ERC20Interface = IERC20(contract_);\n        ERC20Interface.transfer(to_, amount_);\n        tokenBalances[from_][symbol_] = SafeMath.sub(tokenBalances[from_][symbol_] ,amount_);\n    }\n}",
  "sourcePath": "/Users/Raid/Mastering_Ethereum/DevelopingFirstDapp/Testing/contracts/contracts/MultisigERC20.sol",
  "compiler": {
    "name": "solc",
    "version": "0.5.8+commit.23d335f2.Emscripten.clang"
  },
  "schemaVersion": "3.0.11",
  "updatedAt": "2019-08-28T15:07:27.813Z",
  "devdoc": {
    "methods": {}
  },
  "userdoc": {
    "methods": {}
  }
}