{
  "contractName": "Multisig",
  "abi": [
    {
      "constant": true,
      "inputs": [
        {
          "name": "",
          "type": "address"
        }
      ],
      "name": "balances",
      "outputs": [
        {
          "name": "",
          "type": "uint256"
        }
      ],
      "payable": false,
      "stateMutability": "view",
      "type": "function"
    },
    {
      "constant": true,
      "inputs": [
        {
          "name": "",
          "type": "address"
        }
      ],
      "name": "safetyKeys",
      "outputs": [
        {
          "name": "",
          "type": "address"
        }
      ],
      "payable": false,
      "stateMutability": "view",
      "type": "function"
    },
    {
      "constant": true,
      "inputs": [
        {
          "name": "",
          "type": "address"
        }
      ],
      "name": "transactionNonces",
      "outputs": [
        {
          "name": "",
          "type": "uint256"
        }
      ],
      "payable": false,
      "stateMutability": "view",
      "type": "function"
    },
    {
      "inputs": [],
      "payable": false,
      "stateMutability": "nonpayable",
      "type": "constructor"
    },
    {
      "constant": false,
      "inputs": [
        {
          "name": "amount_",
          "type": "uint256"
        },
        {
          "name": "signature_",
          "type": "bytes"
        }
      ],
      "name": "setDailyLimit",
      "outputs": [],
      "payable": false,
      "stateMutability": "nonpayable",
      "type": "function"
    },
    {
      "constant": false,
      "inputs": [
        {
          "name": "signature_",
          "type": "bytes"
        }
      ],
      "name": "withdrawLimit",
      "outputs": [],
      "payable": false,
      "stateMutability": "nonpayable",
      "type": "function"
    },
    {
      "constant": false,
      "inputs": [],
      "name": "deposit_CIx",
      "outputs": [],
      "payable": true,
      "stateMutability": "payable",
      "type": "function"
    },
    {
      "constant": false,
      "inputs": [
        {
          "name": "safetyKey",
          "type": "address"
        }
      ],
      "name": "deposit",
      "outputs": [],
      "payable": true,
      "stateMutability": "payable",
      "type": "function"
    },
    {
      "constant": false,
      "inputs": [
        {
          "name": "to",
          "type": "address"
        },
        {
          "name": "amount",
          "type": "uint256"
        },
        {
          "name": "signature",
          "type": "bytes"
        }
      ],
      "name": "verifyTransaction_26e",
      "outputs": [],
      "payable": false,
      "stateMutability": "nonpayable",
      "type": "function"
    },
    {
      "constant": false,
      "inputs": [
        {
          "name": "from",
          "type": "address"
        },
        {
          "name": "to",
          "type": "address"
        },
        {
          "name": "amount",
          "type": "uint256"
        }
      ],
      "name": "recoverFundsToSafeAddress",
      "outputs": [],
      "payable": false,
      "stateMutability": "nonpayable",
      "type": "function"
    },
    {
      "constant": false,
      "inputs": [
        {
          "name": "from",
          "type": "address"
        },
        {
          "name": "to",
          "type": "address"
        },
        {
          "name": "amount",
          "type": "uint256"
        }
      ],
      "name": "recoverFunds",
      "outputs": [],
      "payable": false,
      "stateMutability": "nonpayable",
      "type": "function"
    }
  ],
  "bytecode": "0x608060405234801561001057600080fd5b50600080546001600160a01b031916331790556112aa806100326000396000f3fe60806040526004361061008d5760003560e01c80635d3590d5116100595780635d3590d51461023b578063a24074721461027e578063a561d81414610331578063c77db03814610364578063f340fa011461041e5761008d565b806155391461009257806176931461015c57806327e235e3146101645780633243df74146101a9578063416d22cd146101f8575b600080fd5b34801561009e57600080fd5b5061015a600480360360608110156100b557600080fd5b6001600160a01b03823516916020810135918101906060810160408201356401000000008111156100e557600080fd5b8201836020820111156100f757600080fd5b8035906020019184600183028401116401000000008311171561011957600080fd5b91908080601f016020809104026020016040519081016040528093929190818152602001838380828437600092019190915250929550610444945050505050565b005b61015a6108de565b34801561017057600080fd5b506101976004803603602081101561018757600080fd5b50356001600160a01b0316610918565b60408051918252519081900360200190f35b3480156101b557600080fd5b506101dc600480360360208110156101cc57600080fd5b50356001600160a01b031661092a565b604080516001600160a01b039092168252519081900360200190f35b34801561020457600080fd5b5061015a6004803603606081101561021b57600080fd5b506001600160a01b03813581169160208101359091169060400135610945565b34801561024757600080fd5b5061015a6004803603606081101561025e57600080fd5b506001600160a01b03813581169160208101359091169060400135610a6a565b34801561028a57600080fd5b5061015a600480360360208110156102a157600080fd5b8101906020810181356401000000008111156102bc57600080fd5b8201836020820111156102ce57600080fd5b803590602001918460018302840111640100000000831117156102f057600080fd5b91908080601f016020809104026020016040519081016040528093929190818152602001838380828437600092019190915250929550610aec945050505050565b34801561033d57600080fd5b506101976004803603602081101561035457600080fd5b50356001600160a01b0316610d76565b34801561037057600080fd5b5061015a6004803603604081101561038757600080fd5b813591908101906040810160208201356401000000008111156103a957600080fd5b8201836020820111156103bb57600080fd5b803590602001918460018302840111640100000000831117156103dd57600080fd5b91908080601f016020809104026020016040519081016040528093929190818152602001838380828437600092019190915250929550610d88945050505050565b61015a6004803603602081101561043457600080fd5b50356001600160a01b031661103c565b3360008181526001602052604090205483111561046057600080fd5b6001600160a01b038082166000818152600260209081526040808320548151606095861b81850152958a1690941b6034860152604885018890526068808601949094528051808603909401845260888501808252845194830194909420600160e01b6319045a2502909452608c850184815260ac8601918252875160cc8701528751949573__ECDSA_________________________________956319045a259588958b959360ec0192908601918190849084905b8381101561052c578181015183820152602001610514565b50505050905090810190601f1680156105595780820380516001836020036101000a031916815260200191505b50935050505060206040518083038186803b15801561057757600080fd5b505af415801561058b573d6000803e3d6000fd5b505050506040513d60208110156105a157600080fd5b50516000546001600160a01b03908116911614806106c3575060408051600160e01b6319045a25028152600481018381526024820192835285516044830152855173__ECDSA_________________________________936319045a25938693899390929160640190602085019080838360005b8381101561062c578181015183820152602001610614565b50505050905090810190601f1680156106595780820380516001836020036101000a031916815260200191505b50935050505060206040518083038186803b15801561067757600080fd5b505af415801561068b573d6000803e3d6000fd5b505050506040513d60208110156106a157600080fd5b50516001600160a01b0383811660009081526004602052604090205481169116145b6106cc57600080fd5b6001600160a01b03821660009081526005602052604090206003015460ff16151560011415610813576001600160a01b038216600090815260056020526040902060020154620151800142111561079b576001600160a01b03821660009081526005602052604090205484111561077757604051600160e51b62461bcd0281526004018080602001828103825260268152602001806111f46026913960400191505060405180910390fd5b6001600160a01b0382166000908152600560205260409020426002909101556107d0565b6001600160a01b038216600090815260056020526040902080546001909101546107c590866110b8565b11156107d057600080fd5b6001600160a01b0382166000908152600560205260409020600101546107f690856110b8565b6001600160a01b0383166000908152600560205260409020600101555b6040516001600160a01b0386169085156108fc029086906000818181858888f19350505050158015610849573d6000803e3d6000fd5b506001600160a01b03821660009081526001602052604090205461086d908561111c565b6001600160a01b03831660008181526001602081815260408084209586553384526003825280842042905593835260028152929091208054820190559052546108d7576001600160a01b038216600090815260046020526040902080546001600160a01b03191690555b5050505050565b336000908152600160205260409020546108f890346110b8565b336000908152600160209081526040808320939093556003905220429055565b60016020526000908152604090205481565b6004602052600090815260409020546001600160a01b031681565b6001600160a01b03831660009081526003602052604090205460780142116109a157604051600160e51b62461bcd02815260040180806020018281038252603481526020018061124b6034913960400191505060405180910390fd5b6001600160a01b0383166000908152600160205260409020548111156109c657600080fd5b6001600160a01b038381166000908152600460205260409020548116908316146109ef57600080fd5b6040516001600160a01b0383169082156108fc029083906000818181858888f19350505050158015610a25573d6000803e3d6000fd5b506001600160a01b038316600090815260016020526040902054610a49908261111c565b6001600160a01b039093166000908152600160205260409020929092555050565b6001600160a01b03831660009081526003602052604090205461012c014211610ac757604051600160e51b62461bcd02815260040180806020018281038252603181526020018061121a6031913960400191505060405180910390fd5b6001600160a01b0383166000908152600160205260409020548111156109ef57600080fd5b33600081815260026020908152604080832054815160609590951b858401526034808601919091528151808603909101815260548501808352815191840191909120600160e01b6319045a25029091526058850181815260788601928352865160988701528651919573__ECDSA_________________________________956319045a259588958a95909360b80192918601918190849084905b83811015610b9e578181015183820152602001610b86565b50505050905090810190601f168015610bcb5780820380516001836020036101000a031916815260200191505b50935050505060206040518083038186803b158015610be957600080fd5b505af4158015610bfd573d6000803e3d6000fd5b505050506040513d6020811015610c1357600080fd5b50516000546001600160a01b0390811691161480610d34575060408051600160e01b6319045a25028152600481018381526024820192835284516044830152845173__ECDSA_________________________________936319045a25938693889390929160640190602085019080838360005b83811015610c9e578181015183820152602001610c86565b50505050905090810190601f168015610ccb5780820380516001836020036101000a031916815260200191505b50935050505060206040518083038186803b158015610ce957600080fd5b505af4158015610cfd573d6000803e3d6000fd5b505050506040513d6020811015610d1357600080fd5b5051336000908152600460205260409020546001600160a01b039081169116145b610d3d57600080fd5b50503360009081526005602090815260408083206003908101805460ff1916905560028352818420805460010190559091529020429055565b60026020526000908152604090205481565b33600081815260026020908152604080832054815160609590951b85840152603485018790526054808601919091528151808603909101815260748501808352815191840191909120600160e01b6319045a25029091526078850181815260988601928352865160b88701528651919573__ECDSA_________________________________956319045a259588958a95909360d80192918601918190849084905b83811015610e41578181015183820152602001610e29565b50505050905090810190601f168015610e6e5780820380516001836020036101000a031916815260200191505b50935050505060206040518083038186803b158015610e8c57600080fd5b505af4158015610ea0573d6000803e3d6000fd5b505050506040513d6020811015610eb657600080fd5b50516000546001600160a01b0390811691161480610fd7575060408051600160e01b6319045a25028152600481018381526024820192835284516044830152845173__ECDSA_________________________________936319045a25938693889390929160640190602085019080838360005b83811015610f41578181015183820152602001610f29565b50505050905090810190601f168015610f6e5780820380516001836020036101000a031916815260200191505b50935050505060206040518083038186803b158015610f8c57600080fd5b505af4158015610fa0573d6000803e3d6000fd5b505050506040513d6020811015610fb657600080fd5b5051336000908152600460205260409020546001600160a01b039081169116145b610fe057600080fd5b33600090815260056020526040902054610ffa90846110b8565b3360009081526005602090815260408083209384556003938401805460ff19166001908117909155600283528184208054909101905592905220429055505050565b336000908152600160205260409020541561105657600080fd5b3360009081526001602052604090205461107090346110b8565b336000908152600160209081526040808320939093556004815282822080546001600160a01b0319166001600160a01b03959095169490941790935560039092529020429055565b6000828201838110156111155760408051600160e51b62461bcd02815260206004820152601b60248201527f536166654d6174683a206164646974696f6e206f766572666c6f770000000000604482015290519081900360640190fd5b9392505050565b600061111583836040518060400160405280601e81526020017f536166654d6174683a207375627472616374696f6e206f766572666c6f770000815250600081848411156111eb57604051600160e51b62461bcd0281526004018080602001828103825283818151815260200191508051906020019080838360005b838110156111b0578181015183820152602001611198565b50505050905090810190601f1680156111dd5780820380516001836020036101000a031916815260200191505b509250505060405180910390fd5b50505090039056fe5472616e73616374696f6e20616d6f756e742065786365656473206461696c79206c696d69744e6f7420656e6f7567682074696d6520656c617073656420746f207265636f76657220746f20616e7920616464726573734e6f7420656e6f7567682074696d6520656c617073656420746f207265636f76657220746f206261636b75702061646472657373a165627a7a723058204ca0c470f1cabed9e67a7328287a006e72a6cbbf051d95794aad8d05e4f54af00029",
  "source": "pragma solidity ^0.5.0;\n\nimport './ECDSA.sol';\nimport './SafeMath.sol';\n// Verifying two signatures in one transcaction in this smart contract\n\ncontract Multisig {\n    \n    address private owner; \n    \n    struct TimeLimits {\n        uint256 dailyLimit;\n        uint256 spent;\n        uint256 timeStart;\n        bool set;\n    }\n    \n    mapping(address => uint256) public balances;\n    mapping(address => uint256) public transactionNonces;\n    mapping(address => uint256) private lastAppearance; \n    mapping(address => address) public safetyKeys; \n    mapping(address => TimeLimits) private limits; \n    \n    constructor() public {\n        owner = msg.sender;\n    }\n    \n    function setDailyLimit(uint256 amount_, bytes memory signature_) public {\n        bytes32 message = keccak256(abi.encodePacked(msg.sender, amount_, transactionNonces[msg.sender]));\n        require(owner == ECDSA.recover(message, signature_) || safetyKeys[msg.sender] == ECDSA.recover(message, signature_));\n        limits[msg.sender].dailyLimit = SafeMath.add(limits[msg.sender].dailyLimit, amount_);\n        limits[msg.sender].set = true;\n        transactionNonces[msg.sender]++;\n        lastAppearance[msg.sender] = block.timestamp; \n    }\n    \n    function withdrawLimit(bytes memory signature_) public {\n        bytes32 message = keccak256(abi.encodePacked(msg.sender, transactionNonces[msg.sender]));\n        require(owner == ECDSA.recover(message, signature_) || safetyKeys[msg.sender] == ECDSA.recover(message, signature_));\n        limits[msg.sender].set = false;\n        transactionNonces[msg.sender]++;\n        lastAppearance[msg.sender] = block.timestamp; \n    }\n    \n    function deposit_CIx() \n        public \n        payable {\n            balances[msg.sender] = SafeMath.add(balances[msg.sender], msg.value);\n            lastAppearance[msg.sender] = block.timestamp; // Updating last time an action was taken by the user \n        }\n        \n    function deposit(address safetyKey) \n        public\n        payable {\n            require(balances[msg.sender] == 0); // If there are funds in the account, safetyKey should not be overriden\n            balances[msg.sender] = SafeMath.add(balances[msg.sender], msg.value);\n            safetyKeys[msg.sender] = safetyKey;\n            lastAppearance[msg.sender] = block.timestamp; // Updating last time an action was taken by the user \n    }    \n    \n    function verifyTransaction_26e\n        (address payable to, uint256 amount, bytes memory signature) \n        public \n        {\n            address from = msg.sender;\n            require(balances[from] >= amount); \n            bytes32 message = keccak256(abi.encodePacked(from, to, amount, transactionNonces[from]));\n            require(owner == ECDSA.recover(message, signature) || safetyKeys[from] == ECDSA.recover(message, signature)); // Check if the transaction was signed by the owner or safe key\n            if (limits[from].set == true) {\n                if (block.timestamp > limits[from].timeStart + 86400) {\n                    require(amount <= limits[from].dailyLimit, \"Transaction amount exceeds daily limit\");\n                    limits[from].timeStart = block.timestamp;\n                } else {\n                    require(SafeMath.add(limits[from].spent, amount) <= limits[from].dailyLimit);\n                }\n                limits[from].spent = SafeMath.add(limits[from].spent, amount);\n            }\n            to.transfer(amount);\n            balances[from] = SafeMath.sub(balances[from] ,amount);\n            lastAppearance[msg.sender] = block.timestamp; // Updating last time an action was taken by the user \n            transactionNonces[from]++;\n            if (balances[from] == 0) {\n                delete safetyKeys[from];\n            }\n        }\n        \n    function recoverFundsToSafeAddress(\n        address from, \n        address payable to, \n        uint256 amount\n        )\n        public \n        {\n            require(block.timestamp > lastAppearance[from] + 120, \"Not enough time elapsed to recover to backup address\"); //Testing that after two minues funds can be sent to safe address\n            require(balances[from] >= amount);\n            require(safetyKeys[from] == to);\n            to.transfer(amount);\n            balances[from] = SafeMath.sub(balances[from] ,amount);\n        }\n    \n    function recoverFunds(\n        address from, \n        address payable to, \n        uint256 amount\n        )\n        public\n        {\n            require(block.timestamp > lastAppearance[from] + 300, \"Not enough time elapsed to recover to any address\"); //Testing that after five minutes funds can be sent to anyone\n            require(balances[from] >= amount);\n            to.transfer(amount);\n            balances[from] = SafeMath.sub(balances[from] ,amount);\n        }\n}",
  "sourcePath": "/Users/Raid/Mastering_Ethereum/DevelopingFirstDapp/Testing/contracts/contracts/Multisig.sol",
  "compiler": {
    "name": "solc",
    "version": "0.5.8+commit.23d335f2.Emscripten.clang"
  },
  "schemaVersion": "3.0.11",
  "updatedAt": "2019-08-28T15:07:27.805Z",
  "devdoc": {
    "methods": {}
  },
  "userdoc": {
    "methods": {}
  }
}